:1000000045C00000CCC00000DEC000005DC00000A4
:100010005BC0000059C0000057C0000055C0000080
:1000200053C0000051C000004FC000004DC0000090
:100030004BC0000049C0000047C0000045C00000A0
:10004000D6C0000041C000008BC000003DC00000D1
:100050003BC0000039C0000037C0000035C00000C0
:1000600033C0000031C000002FC000002DC00000D0
:100070002BC0000029C0000027C0000025C00000E0
:1000800023C0000021C000001FC0000011241FBEBB
:10009000CFEFD0E1DEBFCDBF11E0A0E0B1E0E4EEF4
:1000A000F3E100E00BBF02C007900D92A830B1074A
:1000B000D9F722E0A8E0B1E001C01D92AE36B20748
:1000C000E1F72FD50C94F0099BCF2CB53DB5232B30
:1000D000E1F325E535E545E051E40E948D0920E096
:1000E00030E048E453E406D7D5D7673881E0780795
:1000F00034F46A3071052CF46AE070E002C066E8FE
:1001000071E0CB01089690938500809384009BBD9D
:100110008ABD68507109709387006093860079BD2D
:1001200068BD0895CF9318BA88E8D9D683E4D7D6A6
:10013000C1E0C8BB18BA80E9D2D680E0D0D6C8BB2F
:1001400018BA80E2CCD6C8BBCF91089597B1907F02
:10015000890F87B9369A349BFECF84B195B1089543
:100160001F920F920FB60F9211240BB60F928F931E
:10017000EF93FF93E091490281E08E0F8093490253
:10018000F0E08CB1E75BFE4F8083FF91EF918F91A0
:100190000F900BBE0F900FBE0F901F9018951F92DF
:1001A0000F920FB60F9211248F939F9381E090E0EE
:1001B00090930901809308019F918F910F900FBE3A
:1001C0000F901F9018951F920F920FB60F92112447
:1001D0008F939F9382E090E09093090180930801B0
:1001E0009F918F910F900FBE0F901F9018951F92A7
:1001F0000F920FB60F9211240BB60F928F929F920F
:10020000AF92BF92CF92DF92EF92FF922F933F93E4
:100210004F935F936F937F938F939F93AF93BF930E
:10022000CF93EF93FF9383E882BFC1E0C5BB80E02B
:100230008DDFBC01990F880B990B5FD76093640227
:1002400070936502809366029093670218BA88EEF5
:1002500046D6C8BB18BA88E642D646D6C82ED12C98
:10026000E12CF12CFE2CED2CDC2CCC243DD6C82A24
:10027000FE2CED2CDC2CCC2437D6C82AFE2CED2C01
:10028000DC2CCC2431D6C8BBC82AF094E094D0949E
:10029000C094C11CD11CE11CF11CC0924501D0923C
:1002A0004601E0924701F09248016091450170914A
:1002B000460180914701909148011FD720E030E02E
:1002C00042EA58E47FD69B01AC0114D62BED3FE007
:1002D00049E450E40E948D0960933801709339011C
:1002E00080933A0190933B0183E085BB9091630238
:1002F00089E2989F812D112482958F7024E6829F38
:10030000901911249111F2C01092630280910A0198
:1003100090910B01029709F052C0609140017091D9
:100320004101809142019091430124E93FE049EC71
:1003300050E4EFD78823B4F06091400170914101FF
:10034000809142019091430124E93FE049EC50E45F
:1003500016D76093400170934101809342019093BE
:1003600043012DC060914001709141018091420193
:100370009091430120E030E0A90120D68823FCF4CD
:100380008091400190914101A0914201B0914301BF
:10039000BC01CD01905824E93FE049EC50E4EFD690
:1003A0009B01AC0164E97FE089EC90E4A2D5609305
:1003B00040017093410180934201909343018091E9
:1003C000340190913501A0913601B09137018093AD
:1003D000300190933101A0933201B09333016091C9
:1003E000400170914101809142019091430120911F
:1003F00038013091390140913A0150913B0179D552
:1004000060933401709335018093360190933701E6
:10041000C0903401D0903501E0903601F090370162
:1004200060913401709135018091360190913701CE
:1004300020913001309131014091320150913301CE
:1004400058D52DEC3CEC4CE45DE3BCD52DEC3CECFC
:100450004CE45FE362D74B015C01A7019601C70141
:10046000B60148D59B01AC01C501B40143D56093E9
:1004700068027093690280936A0290936B026091A4
:1004800068027091690280916A0290916B022DEE70
:1004900032EE4DEF50E43DD718166CF48DEE92EE2F
:1004A000ADEFB0E48093680290936902A0936A0272
:1004B000B0936B021BC060916802709169028091D9
:1004C0006A0290916B022DEE32EE4DEF50EC76D534
:1004D000882364F48DEE92EEADEFB0EC8093680269
:1004E00090936902A0936A02B0936B022091630219
:1004F0008DEC289F812D1124869586958695880FF1
:10050000982F990F990F890F281370C18091680255
:1005100090916902A0916A02B0916B0280932C01C4
:1005200090932D01A0932E01B0932F0160912C0187
:1005300070912D0180912E0190912F012091040145
:10054000309105014091060150910701E2D618163D
:100550008CF48091040190910501A0910601B09165
:10056000070180932C0190932D01A0932E01B0934D
:100570002F0127C08091040190910501A0910601EF
:10058000B091070120912C0130912D0140912E0155
:1005900050912F01BC01CD019058BBD618168CF498
:1005A0008091040190910501A0910601B09107018D
:1005B000B05880932C0190932D01A0932E01B093FD
:1005C0002F01609138017091390180913A01909129
:1005D0003B0120913C0130913D0140913E01509101
:1005E0003F0187D42AE037ED43EA5BE3EBD4609325
:1005F00028017093290180932A0190932B01809107
:10060000380190913901A0913A01B0913B0180935A
:100610003C0190933D01A0933E01B0933F01609156
:100620002C0170912D0180912E0190912F0120912C
:1006300028013091290140912A0150912B0159D470
:1006400060932401709325018093260190932701E4
:1006500060912401709125018091260190912701DC
:1006600020912001309121014091220150912301DC
:1006700041D46093200170932101809322019093D3
:1006800023018090240190902501A0902601B09034
:1006900027016091200170912101809122019091A8
:1006A00023012BEC31EA46E252E437D62AE037ED5B
:1006B00043EA5BE332D66B017C0127ED33EA40EC81
:1006C0005FE3C501B40129D69B01AC01C701B601A6
:1006D00011D460935F0270936002809361029093E3
:1006E000620260915F02709160028091610290915C
:1006F000620228EB3EE145E050E40BD61816A4F563
:1007000060915F027091600280916102909162023B
:10071000C0902001D0902101E0902201F0902301AF
:1007200028EB3EE145E050E4E4D322E336EE46E731
:100730005FE3F3D59B01AC01C701B601DAD3609347
:10074000200170932101809322019093230188EB73
:100750009EE1A5E0B0E480935F0290936002A093D5
:100760006102B093620242C060915F0270916002C8
:10077000809161029091620228EB3EE145E050ECED
:100780001DD488239CF560915F0270916002809176
:10079000610290916202C0902001D0902101E0900E
:1007A0002201F090230128EB3EE145E050E4A2D382
:1007B00022E336EE46E75FE3B0D59B01AC01C7010B
:1007C000B60197D360932001709321018093220199
:1007D0009093230188EB9EE1A5E0B0EC80935F024B
:1007E00090936002A0936102B093620280915F02D5
:1007F00090916002A0916102B091620280931C010D
:1008000090931D01A0931E01B0931F0160911C01E4
:1008100070911D0180911E0190911F012091000196
:1008200030910101409102015091030172D51816D7
:100830008CF48091000190910101A0910201B0918E
:10084000030180931C0190931D01A0931E01B0939E
:100850001F0127C08091000190910101A091020128
:10086000B091030120911C0130911D0140911E01A6
:1008700050911F01BC01CD0190584BD518168CF436
:100880008091000190910101A0910201B0910301BA
:10089000B05880931C0190931D01A0931E01B0934A
:1008A0001F016091640270916502809166029091CF
:1008B000670220E030E040E85AE32FD520E030E046
:1008C00040EA50E42AD520E030E040E250E411D381
:1008D00020E030E040E251E420D5DC01CB01B0580B
:1008E0008093180190931901A0931A01B0931B01F2
:1008F00060911C0170911D0180911E0190911F015A
:10090000209118013091190140911A0150911B0159
:10091000F0D26093140170931501809316019093A7
:100920001701609114017091150180911601909149
:100930001701209110013091110140911201509145
:100940001301D8D2609310017093110180931201AA
:10095000909313018090140190901501A0901601BE
:10096000B0901701609110017091110180911201F6
:100970009091130123E33BE34AE055E4CED42FE604
:1009800032E143E05AE3C9D46B017C0126E436EB43
:1009900043E55FE3C501B401C0D49B01AC01C701CD
:1009A000B601A8D277D370930F0160930E016091C6
:1009B00028017091290180912A0190912B01E090EA
:1009C0000E01F0900F012FED30EE4BE85DE3A5D462
:1009D0004B015C01B701FF0C880B990B8ED39B0177
:1009E000AC01C501B40186D255D370930F01609359
:1009F0000E0180910E0190910F01499764F1609171
:100A00000E0170910F01C0901001D0901101E09083
:100A10001201F090130168517109072E000C880B28
:100A2000990B6BD322EF3AEF40E850E476D49B0168
:100A3000AC01C701B6015DD2609310017093110142
:100A4000809312019093130188E190E090930F013D
:100A500080930E0132C080910E0190910F01883E6B
:100A60009F4F5CF560910E0170910F01C0901001D5
:100A7000D0901101E0901201F0901301685E7F4F59
:100A8000072E000C880B990B38D322EF3AEF40E881
:100A900050E443D49B01AC01C701B6012AD2609354
:100AA000100170931101809312019093130188EE4D
:100AB0009FEF90930F0180930E0160910E01709152
:100AC0000F01072E000C880B990B17D3FEDA8091CB
:100AD00063028F5F8093630280910C0190910D01FE
:100AE000019690930D0180930C01FF91EF91CF91AE
:100AF000BF91AF919F918F917F916F915F914F9136
:100B00003F912F91FF90EF90DF90CF90BF90AF90EB
:100B10009F908F900F900BBE0F900FBE0F901F9065
:100B20001895CF93DF93CDB7DEB764970FB6F894DF
:100B3000DEBF0FBECDBF8EEF8C838B838A8389830C
:100B40005ED16AD1AAD1B2D1C1D16DD171D183D1D7
:100B500010928900109288001DBC1CBC60E070E0FF
:100B6000CB01B3DA95D1DEDA83E882BF7894712CB9
:100B70000F2EF4E15F2EF02D0F2EF3E06F2EF02DEF
:100B80007E0185E1E80EF11C0F2EFBE4CF2EF2E092
:100B9000DF2EF02D6894882481F8912C68944424E9
:100BA00041F8AA24A394B12C33243394C8C0809173
:100BB0006D028130E9F020F0823009F449C0BAC0FA
:100BC000E0916C02F0E0E75BFE4F80818F3F69F4BB
:100BD00080914A028F5F80934A0280914A0284305A
:100BE00009F0A8C030926D02A5C010924A02A2C0BE
:100BF000E0914A0281E08E0F80934A02F0E0A091DA
:100C00006C02B0E0A75BBE4F8C91E55BFD4F80832B
:100C100080914A02883009F08DC0F60185818130CB
:100C200039F4B0920B01A0920A0140926D0282C089
:100C3000F6018581823039F490920B0180920A018D
:100C400040926D0277C010926D0210924A0272C0FB
:100C5000E0914A0281E08E0F80934A02F0E0A09179
:100C60006C02B0E0A75BBE4F8C91E55BFD4F8083CB
:100C7000E0916C02F0E0E75BFE4F8081780EF601B8
:100C8000948180914A02981344C0878178123BC0B6
:100C900086818230C1F560857185828593852DD2EC
:100CA00020E030E04AE754E48DD160934001709336
:100CB00041018093420190934301F601648575855B
:100CC000868597851AD220E030E04AE754E47AD14D
:100CD00060930401709305018093060190930701CE
:100CE000F601608971898289938907D220E030E01A
:100CF0004AE754E467D16093000170930101809347
:100D000002019093030110926D0210924A02712C1D
:100D100011C0F601948180914A02981720F08091C9
:100D20004A02853138F086E6D6D010926D021092D4
:100D30004A02712C80916C028F5F80936C029091BB
:100D40006C0280914902981332CF80910C019091EE
:100D50000D014497A4F310920D0110920C018091A3
:100D600044018E835D826F82188660913801709194
:100D7000390180913A0190913B0120E030E04AE74F
:100D800054E4CBD287D169877A878B879C8760911F
:100D900028017091290180912A0190912B0120E076
:100DA00030E04AE754E4B9D275D16D877E878F87EA
:100DB000988B609118017091190180911A0190919E
:100DC0001B0120E030E04AE754E4A7D263D1698BED
:100DD0007A8B8B8B9C8BFE01399681919885890F3C
:100DE0008887EE15FF05C9F78E010F5F1F4FF801C9
:100DF00081918F0170D00E151F05C9F7A0CF8FEF1D
:100E00008ABB84BB88E081BB87E687BB8AE182B965
:100E10001BBA87E088BB089511BA8AE080936A0004
:100E200083E089BF089584E083BF81E087BF089590
:100E300082EE8FBD81E18EBD8FE891E097BD86BDCA
:100E400010927900109278001BBC1ABC19BC18BC17
:100E50001DBC1CBC089582EB80938B0081E18093C4
:100E60008A008FE891E09093810080938000109237
:100E700083001092820010928700109286001092D8
:100E800085001092840010928900109288000895C5
:100E900080E487B986E886B908951BB888E98AB9DD
:100EA00086E08093950087E689B9089581B3837FB2
:100EB000886081BB10929B0088E180939A0086E055
:100EC00080939D0088E080939900089580E58DB916
:100ED00081E08EB908955D9BFECF8CB908958FB9DE
:100EE000779BFECF8FB108951FB8779BFECF8FB150
:100EF00008955058BB27AA270ED0D1C1C2D130F0D7
:100F0000C7D120F031F49F3F11F41EF4B7C10EF4A5
:100F1000E095E7FB9FC1E92FD3D180F3BA176207B1
:100F200073078407950718F071F49EF5EBC10EF472
:100F3000E0950B2EBA2FA02D0B01B90190010C01E9
:100F4000CA01A0011124FF27591B99F0593F50F401
:100F5000503E68F11A16F040A22F232F342F442759
:100F6000585FF3CF469537952795A795F040539551
:100F7000C9F77EF41F16BA0B620B730B840BBAF021
:100F80009150A1F0FF0FBB1F661F771F881FC2F78C
:100F90000EC0BA0F621F731F841F48F487957795A0
:100FA0006795B795F7959E3F08F0B3CF9395880F57
:100FB00008F09927EE0F97958795089527D108F4A3
:100FC00081E008950CD06BC163D140F05AD130F06C
:100FD00021F45F3F19F03EC1511195C14FC170D14D
:100FE00098F39923C9F35523B1F3951B550BBB27F0
:100FF000AA2762177307840738F09F5F5F4F220F9D
:10100000331F441FAA1FA9F333D00E2E3AF0E0E895
:1010100030D091505040E695001CCAF729D0FE2FE1
:1010200027D0660F771F881FBB1F26173707480773
:10103000AB07B0E809F0BB0B802DBF01FF27935829
:101040005F4F2AF09E3F510568F004C15CC15F3FCD
:10105000ECF3983EDCF3869577956795B795F79511
:101060009F5FC9F7880F911D9695879597F9089509
:10107000E1E0660F771F881FBB1F621773078407A5
:10108000BA0720F0621B730B840BBA0BEE1F88F7B4
:10109000E095089504D06894B11135C1089518D130
:1010A00088F09F5790F0B92F9927B751A0F0D1F051
:1010B000660F771F881F991F1AF0BA95C9F712C0DB
:1010C000B13081F01FD1B1E008951CC1672F782F96
:1010D0008827B85F39F0B93FCCF386957795679547
:1010E000B395D9F73EF490958095709561957F4FB3
:1010F0008F4F9F4F0895E89409C097FB3EF4909559
:101100008095709561957F4F8F4F9F4F9923A9F0E0
:10111000F92F96E9BB279395F6958795779567956F
:10112000B795F111F8CFFAF4BB0F11F460FF1BC0B3
:101130006F5F7F4F8F4F9F4F16C0882311F096E946
:1011400011C0772321F09EE8872F762F05C06623F4
:1011500071F096E8862F70E060E02AF09A95660FAD
:10116000771F881FDAF7880F9695879597F9089566
:1011700088D018F011F08CD038F480C0C4C0E92FAA
:101180009FD0B0F35523C9F3E7FB621773078407B9
:101190009507A8F199F3E92FFF2788232AF03197C3
:1011A000660F771F881FDAF7952F5527442332F0F3
:1011B00091505040220F331F441FD2F7BB27E91B29
:1011C000F50B621B730B840BB109C1F222F4620FA1
:1011D000731F841FB11D31972AF0660F771F881F78
:1011E000BB1FEFCF915050405AF041F0882332F0AE
:1011F000660F771F881F91505040C1F7939530C0FC
:101200008695779567959F5FD9F7F8CF990F000876
:10121000550FAA0BE0E8FEEF16161706E807F907C8
:10122000C0F012161306E407F50798F0621B730B63
:10123000840B950B39F40A2661F0232B242B252BE4
:1012400021F408950A2609F4A140A6958FEF811D87
:10125000811D089597F99F6780E870E060E0089528
:101260009F3F31F0915020F4879577956795B7951A
:10127000880F911D9695879597F908959FEF80ECBB
:10128000089500240A9416161706180609060895EC
:1012900000240A9412161306140605060895092E52
:1012A0000394000C11F4882352F0BB0F40F4BF2BC1
:1012B00011F460FF04C06F5F7F4F8F4F9F4F089501
:1012C00057FD9058440F551F59F05F3F71F04795F7
:1012D000880F97FB991F61F09F3F79F087950895DC
:1012E000121613061406551FF2CF4695F1DF08C0FB
:1012F000161617061806991FF1CF86957105610518
:1013000008940895E894BB2766277727CB0197F9BF
:1013100008957CDF08F48FEF08950BD0C0CFB1DFC4
:1013200028F0B6DF18F0952309F094CFA7CF112449
:10133000EACFC6DFA0F3959FD1F3950F50E0551F7C
:10134000629FF001729FBB27F00DB11D639FAA271A
:10135000F00DB11DAA1F649F6627B00DA11D661F69
:10136000829F2227B00DA11D621F739FB00DA11D8A
:10137000621F839FA00D611D221F749F3327A00D44
:10138000611D231F849F600D211D822F762F6A2FE0
:1013900011249F5750408AF0E1F088234AF0EE0F65
:1013A000FF1FBB1F661F771F881F91505040A9F772
:1013B0009E3F510570F04ECFA6CF5F3FECF3983EB5
:1013C000DCF3869577956795B795F795E7959F5FD9
:1013D000C1F7FE2B880F911D9695879597F9089573
:0413E000F894FFCFAF
:0813E4000000803F00002041E1
:00000001FF
